:020000040800F2
:10000000E8CB00209D0100080D4300087D3B00085F
:1000100011420008610B0008515600080000000062
:10002000000000000000000000000000AF01000818
:10003000A50C000800000000B3010008B34A000846
:1000400019570008B7010008B7010008B7010008F8
:10005000B7010008B7010008B7010008B7010008A0
:10006000B7010008B7010008B7010008B701000890
:10007000B7010008B7010008B7010008B701000880
:10008000B7010008B7010008B7010008B701000870
:10009000B7010008B7010008B7010008B701000860
:1000A000B7010008B7010008B7010008B701000850
:1000B000B7010008D54B0008E54B0008B701000860
:1000C000B7010008B7010008B7010008B701000830
:1000D000B70100088D530008B70100089D530008C0
:1000E00079100008B7010008B7010008B70100083F
:1000F000B7010008B7010008B7010008B701000800
:10010000B7010008B7010008F54B0008B701000867
:10011000BD4E0008B7010008B7010008B70100088C
:10012000B7010008B7010008B7010008B7010008CF
:10013000B7010008B7010008B7010008B7010008BF
:10014000B7010008B7010008B7010008B7010008AF
:10015000B7010008B7010008B7010008B70100089F
:10016000B7010008B7010008B7010008B70100088F
:10017000B7010008B7010008B7010008000000003F
:10018000B7010008B7010008DFF80CD000F050FA02
:1001900000480047A5860008E8CB002006488047B5
:1001A00006480047FEE7FEE7FEE7FEE7FEE7FEE75C
:1001B000FEE7FEE7FEE7FEE7714B00088901000855
:1001C00040EA01039B0703D009E008C9121F08C0D9
:1001D000042AFAD203E011F8013B00F8013B521E59
:1001E000F9D27047D2B201E000F8012B491EFBD2D0
:1001F00070470022F6E710B513460A460446194632
:10020000FFF7F0FF204610BD421C10F8011B00292B
:10021000FBD1801A704730B504460020034600E049
:100220005B1C934203D2E05CCD5C401BF8D030BD38
:1002300030B50B46014600202022012409E021FAB6
:1002400002F59D4205D303FA02F5491B04FA02F5B3
:100250002844151EA2F10102F1DC30BD2DE9F05F4A
:100260000546002092469B46884606468146402425
:100270001BE0284641464746224600F0FAF953461D
:100280005A46C01A914110D311461846224600F032
:10029000E1F92D1A67EB01084F46224601200021A3
:1002A00000F0D8F917EB00094E41201EA4F101041B
:1002B000DFDC484631462A464346BDE8F09F2DE93B
:1002C000FE4F804681EA0300C00F0C46009021F0EB
:1002D000004123F00045B8EB0200A94105D2404699
:1002E000214690461C460B46024623F00040104330
:1002F00047D0270DC7F30A00C3F30A510290401AF2
:10030000019040286BDAC3F3130040F4801B00987F
:10031000924620B10023D2EB030A63EB0B0B01984A
:100320005946C0F14002504600F094F906460D4689
:1003300050465946019A00F0ACF910EB08006141B3
:10034000002487EA115284EAE7731A4340D0009AE6
:1003500062B3019A012A4FEA075215DC001B61EBD8
:1003600002014FF0004202EA0752CDE90042001CB0
:1003700041F5801132462B4600F0ACF903B0BDE8E0
:10038000F08F40462146F9E7001B61EB0201001C9B
:1003900041F5801300185B412018A2F5001747EBC8
:1003A000030140EAD570B6196D4111E06D084FEABE
:1003B000360645EAC0754FEA0752001B61EB0201A1
:1003C000001C41F5801149084FEA300000195141E5
:1003D00032462B4603B0BDE8F04F00F06CB90098F0
:1003E000012240000023D0EB020263EBE07300988F
:1003F00021464FEAE074B8EB000061EB0401E9E745
:1004000083F000435BE781F0004158E72DE9FE4FA0
:1004100081EA030404F0004421F0004100944FF00D
:10042000000B23F0004350EA01045ED052EA0304BB
:100430005BD0C3F30A54C1F30A552C44A4F2F3343D
:100440000194A0FB0254C1F3130141F48011C3F3E2
:10045000130343F4801301FB024400FB034E840AA0
:10046000970A44EA815447EA8357A4FB0768029538
:100470008D0A05FB07854FEA932C04FB0C542705D6
:10048000029D4FEA065847EA1637B5EB08056EEBB2
:10049000070C870E920E47EA811742EA8312A7FBE8
:1004A0000201B6EB0B0164EB00042B0D43EA0C33A5
:1004B0005E1844EB1C50DA465146E7FB0201C5F3D7
:1004C00013044FEA0B3343EA14534FEA0432019CFE
:1004D00043EA0603A4F10C040294009CCDE900B4A5
:1004E00000F0F8F803B0BDE8F08F00200146F9E70E
:1004F0002DE9F04D81EA030404F0004B21F00045A2
:1005000014464FF0000A23F0004150EA050220D0C3
:1005100054EA01021DD0C5F30A570246C5F313037E
:10052000C1F31300C1F30A5640F4801543F480135D
:10053000A7EB0608101BD64608F2FD3873EB050042
:1005400002D308F1010801E092185B41B8F1000FF5
:1005500003DA00200146BDE8F08D00204FF4801141
:10056000064684460EE0171B73EB050705D3121BE6
:1005700063EB050306434CEA010C49084FEA3000DF
:1005800092185B4150EA0107EDD152EA030012D004
:1005900082EA040083EA0501084305D0101BAB4141
:1005A00006D20122002306E000224FF0004302E0C1
:1005B0006FF0010253101AEB06004CEB085110EBE0
:1005C0000A0041EB0B01BDE8F04D00F074B8C1F337
:1005D0000A52C1F3130140F2FF3341F480119A42F1
:1005E00002DA00200146704740F233439A42A2F2F9
:1005F000334202DC524200F03CB800F02BB800005D
:1006000030B5041E71F1000404DB4FF00044404299
:1006100064EB0101141E73F1000405DB1C464FF06E
:100620000043524263EB0403994208BF904230BD3D
:10063000064C074D06E0E06840F0010394E807002F
:1006400098471034AC42F6D3FFF7A2FD78CD0008EE
:1006500098CD0008202A04DB203A00FA02F100209D
:1006600070479140C2F1200320FA03F319439040F0
:100670007047202A04DB203A21FA02F0002170475B
:1006800021FA02F3D040C2F12002914008431946FA
:100690007047202A06DBCB17203A41FA02F043EAE2
:1006A000E07306E041FA02F3D040C2F1200291402B
:1006B00008431946704710B5141E73F1000408DA98
:1006C000401C41F1000192185B411A4301D120F016
:1006D000010010BD2DE9F04D92469B4611B1B1FAD3
:1006E00081F202E0B0FA80F220329046FFF7B2FFCA
:1006F00004460F4640EA0A0041EA0B0153465A46B7
:10070000084313D0114653EA010019D0C8F1400242
:100710005046FFF7AEFF05460E4650465946424644
:10072000FFF798FF084305D0012004E02046394632
:10073000BDE8F08D0020054346EAE0762C433743C0
:100740000A986305E40AA0EB08000022FD0A44EAC7
:1007500047540A3002D500200146E9E70105101987
:100760006941DDE9084500196941BDE8F04DA2E79E
:1007700070B58D1810F8014B14F0030201D110F878
:10078000012B231106D110F8013B03E010F8016B97
:1007900001F8016B521EF9D1ABB110F8012B04F036
:1007A0000C048A1A0C2C03D0A2EB84129B1C08E0C8
:1007B00010F8014BA2EB0422F8E712F8014B01F804
:1007C000014B5B1EF9D5A942D4D3002070BD0000B7
:1007D00000B587B000BF002001909C48006840F041
:1007E00002009A4908600846006800F00200019083
:1007F00000BF00BF4FF48040029095480390002056
:10080000049002A9934801F0E1FD00220F21282065
:1008100001F052FF282001F03FFF002000F02AF9EC
:10082000012000F027F900221146501E01F044FF7C
:1008300000BF002001908548006840F48070834923
:1008400008600846006800F48070019000BF00BF97
:10085000012003900490C002029002A97E4801F09A
:10086000B5FD00BF002001907848006840F080008E
:10087000764908600846006800F08000019000BFDB
:1008800000BF00200390012004904FF47F400290AD
:100890000320059002A9714801F098FD00BF0020D7
:1008A00001906A48006840F0020068490860084604
:1008B000006800F00200019000BF00BF002003901C
:1008C000012004904BF6C06002900320059002A91D
:1008D000604801F07BFD4FF48071604801F076FEC6
:1008E0005F4908704FF400715C4801F06FFE5C498D
:1008F000097841EA40005A4908704FF4806157482E
:1009000001F064FE5649097841EA800054490870B4
:100910004FF40061514801F059FE5149097841EA0C
:10092000C0004F4908704FF480514C4801F04EFE12
:100930004C4908704FF40051484801F047FE4949BE
:10094000097841EA4000474908704FF48041434824
:1009500001F03CFE4349097841EA800041490870B2
:100960004FF400413D4801F031FE3E49097841EA2B
:10097000C0003C4908704021364801F027FE3A4942
:1009800008708021334801F021FE3749097841EA97
:100990004000354908704FF400712E4801F016FEF2
:1009A0003149097841EA80002F4908704FF480618D
:1009B000284801F00BFE2C49097841EAC0002A4979
:1009C00008704FF40061234801F000FE27490870C9
:1009D0004FF480511F4801F0F9FD2449097841EA9C
:1009E0004000224908704FF400511A4801F0EEFD12
:1009F0001E49097841EA80001C4908704FF4004103
:100A0000144801F0E3FD1949097841EAC00017498B
:100A1000087000BF002001900C48006840F00400FE
:100A20000A4908600846006800F00400019000BF11
:100A300000BF012003900490000302900320059062
:100A400002A90B4801F0C2FC07B000BD30380240DB
:100A5000000021100004024000200240001C02405F
:100A600048000020490000204A0000204B000020E0
:100A70000008024010B586B0044600BF7CB900BF34
:100A8000002000902A48006840F040002849086093
:100A90000846006800F04000009000BF35E0012CDF
:100AA0000FD100BF002000902148006840F04000B6
:100AB0001F4908600846006800F04000009000BF31
:100AC00023E0022C0FD100BF0020009018480068DE
:100AD00040F48070164908600846006800F4807091
:100AE000009000BF11E0032C0FD100BF0020009048
:100AF0000F48006840F004000D490860084600688F
:100B000000F00400009000BF00BF00BF094830F8AB
:100B100014000190012002900390022004900649E5
:100B200051F8240001A901F051FC06B010BD0000ED
:100B30003038024030CA00081000002010B50346CB
:100B400007E018780C78A04201D0104610BD5B1C5D
:100B5000491C101EA2F10104A2B2F2D10120F5E756
:100B600000BFFEE770B505460C46164800781549EB
:100B70008978884224D013484088401C1149488015
:100B8000084640880A2190FBF1F201FB12000D4952
:100B9000488008464088C0EB80110A48001D00EBE1
:100BA000C10040882080228806484088C0EB80131E
:100BB0000448001D00EBC300011D2846FFF700FBA1
:100BC00070BD0000144A00202DE9F04106460F4692
:100BD0009046B7F5FA7F02DB4FF4FA7000E0384632
:100BE000044645462E480088401C2D49088008468A
:100BF00000880A2190FBF1F201FB120028490880CD
:100C000008460078897888421DD025480088C0EBC6
:100C100080112348001D00EBC1004480204800885B
:100C2000C0EB80111E48001D00F83150011F0988DB
:100C3000C1EB8112014601EBC201081D224631467B
:100C4000FFF7BEFA2AE016484088401C1449488045
:100C5000084640880A2190FBF1F201FB120010497E
:100C6000488008460088C0EB80110D48001D00EB4D
:100C7000C10044800A480088C0EB80110848001D6C
:100C800000F83150011F0988C1EB8112014601EBC8
:100C9000C201081D22463146FFF792FABDE8F081F5
:100CA000144A00207047016801F58051896921F0DC
:100CB0000202016801F580518A617047016801F5FF
:100CC0008051896941F00202016801F580518A6111
:100CD0007047016801F58051896921F4005201686B
:100CE00001F580518A617047016801F58051896979
:100CF00041F40052016801F580518A61704700009B
:100D000008B508490968C9084FF47A72B1FBF2F1D5
:100D10004143009100BF00BF00994A1E0092002984
:100D2000F9D108BD0000002038B50446002000902D
:100D3000206800F58050806940F48011206800F53B
:100D400080508161206800F580508069009001200A
:100D5000FFF7D6FF0099206800F58050816138BD0B
:100D600030B503461479557944EA0520084C0C4403
:100D70002064D4782406957844EA0544557844EAFA
:100D80000524157844EA0500014C0C44606430BD2C
:100D90000080024070B5AEB004460E46002526B174
:100DA0004FF40061E160C900A16000201190129031
:100DB0001390149015901690E06918B94FF4806064
:100DC000179001E0002017904FF400701890002059
:100DD00019901A901B901C901D9040201E9000208E
:100DE0001F9020902190229023902490259026906F
:100DF000802027900020289029902A902B902C90DA
:100E00002D902068056871480540DDE9110108430F
:100E10001399084314990843A16808431599084396
:100E200016990843E168084317990843189908433D
:100E3000199908431A9908431B99084305432068E8
:100E4000056020680568012000F0A7FC20680560A7
:100E5000DDE91C0108431E9908431F9908432099A6
:100E6000084321990843229908432399084321689C
:100E7000486020684568012000F08FFC20684560CC
:100E800024982168886025982168C8602068856951
:100E90004FF641700540DDE9261040EA01402899EF
:100EA0000843299908432A9908432B990843054385
:100EB0002068856120688569012000F06EFC20684B
:100EC0008561DDE92C0108432168C8612068C56996
:100ED000012000F062FC2068C561002001904FF005
:100EE00000700290002003904FF400100490002046
:100EF000059006900790089004200990C0050A907C
:100F000040120B9080010C9040120D9080200E90AA
:100F100000200F901090206800F5805085692C48C3
:100F20000540DDE90101084303990843049908439A
:100F30000599084306990843079908430899084307
:100F4000099908430543206800F5805085612068B1
:100F500000F580508569012000F01FFC206800F535
:100F600080508561DDE90A0108430C9908430D9919
:100F700008430E9908430F9940EA810010990843ED
:100F800040F40001206800F580500160206800F501
:100F900080500568012000F000FC206800F58050BA
:100FA0000560A069012809D1206800F58050C0695A
:100FB00008490843216801F58051C8610021204695
:100FC0006269FFF7CDFE2EB070BD00000F8120FFDB
:100FD000233FDEF84000010038B5044600200090B1
:100FE0002068006820F0040021680860206800681C
:100FF00000900120FFF784FE00982168086038BD4A
:1010000038B50446002000902068006840F00400D5
:10101000216808602068006800900120FFF770FEDA
:1010200000982168086038BD38B50446002000905B
:101030002068006820F008002168086020680068C7
:1010400000900120FFF75CFE00982168086038BD21
:1010500038B50446002000902068006840F0080081
:10106000216808602068006800900120FFF748FEB2
:1010700000982168086038BD10B54FF4804001F039
:1010800097F910BD00BFFEE710B5002201B909E0D5
:10109000012901D10A0205E0022901D10A0201E079
:1010A0004FF44072114B1B6823F440730F4C2360C4
:1010B00023461B681343236023461B6823F0F80371
:1010C000236023461B68F82494FAA4F4B4FA84F449
:1010D00000FA04F444F002042343044C2360234642
:1010E0001B6843F48033236010BD0000103C0240B5
:1010F0001C48006800F40070B0B11A48006820F481
:1011000000701849086000BF0846006840F400609D
:1011100008600846006820F40060086000BF0846C8
:10112000006840F4007008600E48006800F48060B9
:10113000B0B10C48006820F480600A49086000BF24
:101140000846006840F4805008600846006820F4B3
:101150008050086000BF0846006840F48060086066
:1011600070470000003C02400A4A126822F44072B4
:10117000084B1A601A46126842F004021A601A46B6
:1011800012684FF4803343EA00231A43014B1A607C
:1011900070470000103C0240074A126822F4407277
:1011A000054B1A601A4612681A601A46126842F015
:1011B00001021A6001707047103C024010B50949E5
:1011C000096821F44071074C21602146096841F407
:1011D000407121602146096841F0010121600260EF
:1011E000436010BD103C0240084A126822F440726D
:1011F000064B1A601A46126842F480721A601A4648
:10120000126842F001021A6001807047103C0240EF
:10121000084A126822F44072064B1A601A46126895
:1012200042F400721A601A46126842F001021A6013
:1012300001607047103C02402348006800F0100035
:1012400040B12248C06940F010002049C861102018
:101250001D4908601C48006800F0200040B11B4890
:10126000C06940F008001949C8612020164908608B
:101270001548006800F0400040B11448C06940F0D3
:1012800004001249C86140200F4908600E480068F8
:1012900000F0800040B10D48C06940F002000B49E9
:1012A000C8618020084908600748006800F0020013
:1012B00040B10648C06940F020000449C8610220DE
:1012C00001490860704700000C3C024034140020C3
:1012D00070B50446002500201449C86101F08EF95C
:1012E000054609E0601C38B124B101F087F9401BC4
:1012F000A04201D9032070BD0D48006800F4803081
:101300000028EFD10A48006800F0010010B1012068
:10131000074908600648006800F0F20018B1FFF7BE
:101320008BFF0120E7E70020E5E7000034140020F0
:101330000C3C024010B50449044800F075FF08B1A8
:1013400000F006F810BD0000480F0020884700207C
:1013500000BFFEE710B51848006841F658318842D2
:1013600028D115480068401C1349086040201349E3
:1013700008702420487212480068006811490870FB
:1013800009E00F480068401C0D49086008460068E5
:1013900000680C4908700B480078FF28F1D16421DF
:1013A000064800F0D3F8044802680548016806A022
:1013B00002F07EFF10BD0000500F0020540F0020EF
:1013C000440F00204C0F00202A2A466C61736820CD
:1013D0004D656D6F72792057726974652041646440
:1013E00072657373203A20255820202A2A466C61A2
:1013F0007368204D656D6F72792054696D65203A70
:10140000202564200A0D000070B50446384839498B
:101410000860084600680068374908700846007888
:10142000207008460078FF2805D134A002F040FF64
:10143000FFF780FF5AE01BE0002516E00120374946
:1014400008702C48006800682B490870084600782E
:10145000FF2801D120700AE0274800786055254810
:101460000068401C234908606D1C642DE6DB00BF4A
:1014700020784028E0D01F48006809301D490860E6
:101480000846006800681C4908700846007820700B
:101490001BE0002516E0012020490870154800686F
:1014A00000681549087008460078FF2801D12070AF
:1014B0000AE01148007860550E480068401C0D494C
:1014C00008606D1C642DE6DB00BF20784028E0D06A
:1014D000124803781248026806480168114802F071
:1014E000E7FE0E48007808B9FFF724FF70BD000042
:1014F00000000C08440F00204C0F00202A2A466CE4
:10150000617368204D656D6F7279204572726173E9
:1015100065203A202573200A0D000000BA0F002034
:10152000500F0020B4CC000806480068401C054954
:1015300008600548008820B103480088401E024921
:1015400008807047500F0020B80F00202DE9F041AF
:1015500005460E462848006820F480602649086049
:101560000846006820F40070086000BF0846006864
:1015700040F4805008600846006820F480500860FD
:1015800000BF00BF0846006840F4006008600846DD
:10159000006820F40060086000BF0846006840F45E
:1015A000007008600846006840F48060086000240D
:1015B00011E02F5D3A46002310480168184600F0FC
:1015C00089FE28B90D480068401C0C49086001E0FC
:1015D000FFF7BEFE641CB442EBDB094800F0B6F82E
:1015E00007490844401E054909686431884201D80A
:1015F000FFF7A0FEBDE8F081003C0240440F002050
:1016000000000E0810B500F0B1FE114800F02CF8F3
:1016100010490860104800F099F80F490844441E2A
:10162000204600F021F80B490968401A401C0B497C
:10163000086000200A490860022008610548006827
:10164000886006480068C8600648FFF7DDFE10BDE8
:1016500000000C083C0F002000000E08400F002086
:10166000884700209C470020014600202C4A9142D8
:1016700003D2B1F1006F00D350E02A4A914204D264
:10168000274A914201D3012048E0274A914204D2DF
:10169000244A914201D3022040E0244A914204D2DC
:1016A000214A914201D3032038E0214A914204D2D9
:1016B0001E4A914201D3042030E01E4A914204D2D6
:1016C0001B4A914201D3052028E01B4A914204D2D3
:1016D000184A914201D3062020E0184A914204D2D0
:1016E000154A914201D3072018E0154A914204D2CD
:1016F000124A914201D3082010E0124A914204D2CA
:101700000F4A914201D3092008E00F4A914204D2C6
:101710000C4A914201D30A2000E00B2070470000E0
:10172000004000080080000800C000080000010818
:101730000000020800000408000006080000080875
:1017400000000A0800000C0800000E0801460020F6
:1017500029B1012903D0022901D0032902D14FF474
:10176000804005E0042901D1880301E04FF40030F6
:101770007047014691F83500022803D08020486563
:1017800001207047052081F835000868006820F0C6
:1017900001000A6810600020F3E731B500F02EFF69
:1017A0000546009C601C00B1641C00BF00F026FFD1
:1017B000401BA042FAD338BD70B505460C46002642
:1017C00000BF95F84500012801D1022070BD01201D
:1017D00085F8450000BF022085F84400002C6DD03C
:1017E0002868066843480640D4E900010843A16818
:1017F0000843E1680843A96808432169084361690F
:101800000843E9680843A1690843E1690843216A7C
:101810000843616A0843A16A0843064328680660D2
:10182000286806680120FFF7B8FF28680660D4E939
:101830000B010843616B0843A16B0843E16B08434C
:10184000216C0843616C0843A16C08432968486017
:10185000286846680120FFF7A0FF28684660E06C12
:1018600029688860206D2968C860286886694FF6F5
:1018700041700640B4F85410A06D40EA0140E16D9B
:101880000843216E0843616E0843A16E0843064376
:1018900028688661286886690120FFF77EFF28682E
:1018A0008661D4E91B0108432968C8612868C669B4
:1018B0000120FFF772FF2868C66110E028680668FB
:1018C00026F49046D5E902010843064328680660DD
:1018D000286806680120FFF760FF2868066001207D
:1018E00085F8440000BF002085F8450000BF00BF18
:1018F0006CE700000F8120FF70B504460D461646C8
:10190000002200BF94F84500012801D1022070BDDB
:10191000012084F8450000BF022084F84400A5623D
:1019200000221FE005EB42114FF00040086044F236
:10193000F4504860C2EBC21000EB400006EB8000A0
:101940008860A069012803D1486820F00040486001
:10195000581E904204D905EB42102030C86000E0C8
:10196000CD60521C9A42DDD3206800F58050C560DE
:10197000012084F8440000BF002084F8450000BF27
:1019800000BFC4E770B504460D461646002200BFEE
:1019900094F84500012801D1022070BD012084F88F
:1019A000450000BF022084F84400E56200221BE0ED
:1019B00005EB42114FF480100860C2EBC21000EB3F
:1019C000400006EB80008860E06918B9086840F4C0
:1019D00040000860581E904204D905EB42102030A8
:1019E000C86000E0CD60521C9A42E1D3206800F547
:1019F00080500561012084F8440000BF002084F875
:101A0000450000BF00BFC8E70146002200BF91F8B3
:101A10004500012801D102207047012081F84500CE
:101A200000BF022081F84400886A006800F000408E
:101A3000002838D1886A006800F48070F0B1886BA3
:101A4000401C8863886B012801D1886A08638B6A0F
:101A50004B63886A0068C0F30D40021FCA63086BBD
:101A600083680B64886AC0688862012081F844003A
:101A700000BF002081F8450000BFCDE7886A0068FC
:101A800000F4007048B1886A086300234B630123A7
:101A90008B63886AC068886205E0886B401C886335
:101AA000886AC0688862012081F8440000BF002075
:101AB00081F8450000BF0120AEE700002DE9FC41A0
:101AC00004460025002001909D4E0027804614B951
:101AD0000120BDE8FC8194F8440028B9002084F876
:101AE0004500204600F03AF900BF002000909548DC
:101AF000006840F48040934908600846006800F49C
:101B00008040009000BF00BF8F48006820F40000B4
:101B10008D49086008460068216A08438A490860C0
:101B2000206800F58050006840F00101206800F551
:101B30008050016000F062FD07460FE000F05EFD9E
:101B4000C01BB0F5FA7F09D9032084F8440000BF18
:101B5000002084F8450000BF0320BAE7206800F5A4
:101B60008050006800F001000028E7D12068056976
:101B700025F01C0500F0DAFE06467448864205D3BF
:101B80007348864202D245F008051AE07048864242
:101B900005D36B48864202D245F00C0511E0684837
:101BA000864203D36B48864200D20AE069488642E7
:101BB00005D36948864202D245F0040501E045F0AC
:101BC0001005206805614FF400420021204600F016
:101BD000E3FA48B14FF0010841462046FFF7DAF832
:101BE000012084F8440074E7FF20FFF7D6FD606809
:101BF000002871D000F002FD074600BF01AA0121B4
:101C0000204600F08FF900F0F9FCC01B41F288314A
:101C100088420FD94FF0010841462046FFF7BAF835
:101C2000012084F8440000BF002084F8450000BF74
:101C300003204EE7019800F004000428DED1820260
:101C40000021204600F0A8FA48B14FF001084146B3
:101C50002046FFF79FF8012084F8440039E700F0A0
:101C6000CDFC074600BF01AA0121204600F05AF929
:101C700000F0C4FCC01B41F2883188420FD94FF0FC
:101C8000010841462046FFF785F8012084F844000A
:101C900000BF002084F8450000BF032019E7019829
:101CA00000F020002028DED101AA1021204600F0FB
:101CB00039F948B14FF0010841462046FFF76AF86C
:101CC000012084F8440004E7019800F0040020B1EA
:101CD0004FF40061E16002E00DE00021E160019855
:101CE00000F00200022802D10021A1601EE04FF4A2
:101CF0008041A1601AE0E068C0F3CF00A168C1F3A1
:101D00004F0140EA01020021204600F045FA48B1A7
:101D10004FF0010841462046FFF73CF8012084F8C7
:101D20004400D6E640F6FF70FFF737FD41462046F7
:101D3000FFF730F8012084F844000020C9E60000D5
:101D4000008793034438024004380140002D3101DC
:101D5000C00E160200E1F50580D1F00810B586B07E
:101D6000044600BF002000906748006840F0010072
:101D7000654908600846006800F00100009000BF57
:101D800000BF00BF002000900846006840F002003D
:101D900008600846006800F00200009000BF00BF25
:101DA00000BF002000900846006840F00400086072
:101DB0000846006800F00400009000BF00BF00BFAC
:101DC000002000900846006840F0200008600846A7
:101DD000006800F02000009000BF00BF00BF00209E
:101DE00000900846006840F040000860084600681F
:101DF00000F04000009000BF00BF00BF0020009036
:101E00000846006840F0800008600846006800F05E
:101E10008000009000BF00BF00BF00200090084677
:101E2000006840F4807008600846006800F4807024
:101E3000009000BF00BF8620019003200490022084
:101E40000290002003900B20059001A92F4800F07C
:101E5000BDFA4FF49070019001A92D4800F0B6FA38
:101E60003E20019001A92B4800F0B0FA4FF4D04079
:101E7000019001A9284800F0A9FACC20019001A9FD
:101E8000264800F0A3FA4FF48060019001A924488D
:101E900000F09CFA00BF00BF002000901A480068C4
:101EA00040F00070184908600846006800F00070B3
:101EB000009000BF00BF00BF0020009008460068EF
:101EC00040F0806008600846006800F08060009084
:101ED00000BF00BF00BF002000900846006840F02F
:101EE000006008600846006800F00060009000BFD5
:101EF00000BF00BF206A28B900224FF480011046BD
:101F000000F0A0FD06B010BD3038024000000240D5
:101F1000000402400008024000180240001C024079
:101F2000002002402DE9F04104460E4617460025E8
:101F3000A84694F84400822802D10220BDE8F0812E
:101F4000822084F844002068056905F01C05208A79
:101F50004FF4784101EAC0200543481100EA861099
:101F6000054325F0020545F001052068056100F0F4
:101F700045FB804612E000F041FBA0EB0800B0F505
:101F8000803F09D3012084F8440000BF002084F87A
:101F9000450000BF0320D1E72068056905F0010076
:101FA0000028E8D12068406980B23860012084F8B8
:101FB00044000020C2E710B5044600BF94F8450075
:101FC000012801D1022010BD012084F8450000BF86
:101FD000022084F844002046FFF73AF82046FFF735
:101FE0000FF82046FEF7A0FE2046FEF77DFE2046B5
:101FF000FEF764FE012084F8440000BF002084F84E
:10200000450000BF00BFDEE710B5044600BF94F8EE
:102010004500012801D1022010BD012084F84500AF
:1020200000BF022084F844002046FEF752FE2046FE
:10203000FEF739FE2046FEF7CFFF2046FEF774FE7E
:102040002046FEF7F1FF012084F8440000BF002085
:1020500084F8450000BF00BFDEE770B502460023EC
:102060000025002400BF92F84500012801D102207C
:1020700070BD012082F8450000BF022082F84400B4
:1020800049B9012082F8440000BF002082F84500D1
:1020900000BF0120ECE7D06A006800F0004048B1C2
:1020A000122082F8440000BF002082F8450000BFE3
:1020B0000120DDE740F2F450814208D9B1FBF0F392
:1020C000B1FBF0F600FB161010B15B1C00E0012321
:1020D000012B13D1D06A006840F04050D66A3060BE
:1020E000C1F30C00D66A7060D06A006840F000400E
:1020F000D66A3060D06AC068D06232E000242EE038
:10210000D06A006820F04050D66A30602CB9D06A9E
:10211000006840F08050D66A306040F2F450D66AD1
:102120007060581EA04210D1D06A006840F0005084
:10213000D66A3060581EC0EBC01000EB4000A1EB27
:102140008005C5F30C00D66A7060D06A006840F064
:102150000040D66A3060D06AC068D062641C9C427D
:10216000CED3106800F58050406900F0040048B1FB
:102170000426106800F5805046610026106800F5BE
:1021800080504660012082F8440000BF002082F8A1
:10219000450000BF00BF6BE72DE9F04104460E4645
:1021A00017460025A84694F84400422802D1022090
:1021B000BDE8F081422084F844002068056905F0FC
:1021C0001C05208A4FF4784101EAC02005434811DC
:1021D00000EA8610054345F0020545F00105B8B256
:1021E000216848612068056100F008FA804612E025
:1021F00000F004FAA0EB0800B0F5803F09D30120FD
:1022000084F8440000BF002084F8450000BF03208C
:10221000CEE72068056905F001000028E8D101201B
:1022200084F844000020C3E72DE9F04104460E463F
:102230000127002500BF2548007E012802D1022089
:10224000BDE8F08101202149087600BF4CF25030F2
:10225000FFF73EF80746002F31D1401E306020685E
:1022600001280FD1207C6168FEF77EFF4CF25030D0
:10227000FFF72EF807461648006820F004001449BE
:1022800008601AE0A56812E0217C2846FEF7FCFEF3
:102290004CF25030FFF71CF807460D48006820F05C
:1022A000FA000B4908600FB1356005E06D1CD4E9F8
:1022B00002100844A842E7D800BFFEF719FF00BF8C
:1022C00000200249087600BF3846B9E734140020E0
:1022D000103C02402DE9F04106460F4614461D46CB
:1022E0004FF0010800BF1F48007E012802D10220E4
:1022F000BDE8F08101201B49087600BF4CF2503048
:10230000FEF7E6FF8046B8F1000F23D126B9E1B20F
:102310003846FEF741FF12E0012E04D1A1B2384643
:10232000FEF762FF0BE0022E04D121463846FEF78D
:102330006FFF04E022462B463846FEF73FFF4CF283
:102340005030FEF7C5FF80460748006820F00100C6
:102350000549086000BF00200249087600BF4046DA
:10236000C6E7000034140020103C02400748006813
:1023700000F0004030B1064804490C3908600548B7
:10238000086001E0012070470020FCE7103C02409B
:1023900023016745AB89EFCD10B50446B4F5804FF6
:1023A00002D1024804F072FD10BD00005414002058
:1023B00010B5044604480068204020B1024804607B
:1023C0002046FFF7E9FF10BD143C0140F8B5024676
:1023D0000B460025002400200021DCE0012606FA3F
:1023E00001F51E6806EA0504AC4273D15E68022E50
:1023F00002D05E68122E13D1CF0802F1200656F8E3
:1024000027004E07F70E0F26BE40B0434F07FF0EC2
:102410001E69BE403043CF0802F1200646F827006F
:1024200010684F000326BE40B0431E7906F0030635
:102430004F00BE40304310605E68012E08D05E68D9
:10244000022E05D05E68112E02D05E68122E13D1C6
:1024500090684F000326BE40B0434F00DE68BE4088
:1024600030439060506801268E40B0431E79C6F319
:1024700000168E4030435060D0684F000326BE40A7
:10248000B0434F009E68BE403043D0605E6806F0A7
:102490008056B6F1805F7DD100BF00260096404E89
:1024A000366846F480463E4F3E603E46366806F447
:1024B0008046009600BF00BF3A4E8F0856F82700AE
:1024C0008E07370F0F26BE40B043374EB24202D1BF
:1024D000002624E05EE0354EB24201D101261EE026
:1024E000334EB24201D1022619E0324EB24201D13E
:1024F000032614E0304EB24201D104260FE02F4EE5
:10250000B24201D105260AE02D4EB24201D1062683
:1025100005E02C4EB24201D1072600E008268F07C5
:102520003F0FBE4030431F4E8F0846F82700264E0F
:102530003068A0435E6806F48036B6F5803F00D16F
:102540002043214E3060361D3068A0435E6806F49B
:102550000036B6F5003F00D120431B4E361D3060DB
:10256000361D3068A0435E6806F48016B6F5801FFD
:1025700000D12043144E08363060361D3068A04329
:102580005E6806F40016B6F5001F00D120430E4E1B
:102590000C363060491C1029FFF420AFF8BD000054
:1025A0004438024008380140000002400004024064
:1025B00000080240000C02400010024000140240DB
:1025C00000180240001C0240003C01400246136912
:1025D0000B400BB1012000E00020704742694A40E7
:1025E000426170470AB1816101E00B048361704769
:1025F00001480068000C7047002004E001480068B2
:10260000704700003C00002002480068401C01495F
:10261000086070473C00002010B50A48006840F48C
:102620000070084908600846006840F4806008604F
:10263000032000F07FF80F2000F006F800F018F8F3
:10264000002010BD003C024070B5044607480068F9
:102650004FF47A71B0FBF1F5284600F05DFE0022E0
:102660002146501E00F028F8002070BD0000002018
:102670007047000010B501460846002807DB00F04F
:102680001F0301229A40034B440943F8242000BF52
:1026900010BD000080E200E001460846002809DB8A
:1026A00000F01F0301229A4043099B0003F1E0233D
:1026B000C3F8002100BF70472DE9F05F80460D464A
:1026C0001646002703F096F8074639462A46334651
:1026D00001F00700C0F1070ABAF1040F02D94FF068
:1026E000040A01E0C0F1070AD14600F1040ABAF178
:1026F000070F02D24FF0000A01E0A0F1030AD4460E
:102700004FF0010A0AFA09FAAAF1010A0AEA020AD2
:102710000AFA0CFA4FF0010B0BFA0CFBABF1010BB0
:102720000BEA030B4AEA0B042146404603F06AF821
:10273000BDE8F09F00BF00F00702064B19684FF696
:10274000FF031940044B0B4343EA0221014B19607C
:1027500000BF70470CED00E00000FA0570B50446BC
:102760000D4600266D48006800F00F00A84209D20F
:102770006A490D700846006800F00F00A84201D0B9
:10278000012070BD207800F00200022807D16448C3
:10279000006820F0F000A1680843614908602078D3
:1027A00000F00100002877D06068012807D15C485C
:1027B00008380068C0F34040B8B90120E1E760681C
:1027C000022802D06068032807D1554808380068FD
:1027D000C0F3406048B90120D3E751480838006889
:1027E000C0F3400008B90120CBE74D48006820F055
:1027F0000300616808434A490860FFF7FFFE064688
:102800006068012810D108E0FFF7F8FE801B41F254
:102810008831884201D90320B3E74148006800F0BD
:102820000C000428F0D137E06068022810D108E0DD
:10283000FFF7E4FE801B41F28831884201D9032072
:102840009FE73748006800F00C000828F0D123E02B
:102850006068032810D108E0FFF7D0FE801B41F22A
:102860008831884201D903208BE72D48006800F0A9
:102870000C000C28F0D10FE008E0FFF7BFFE801B32
:1028800041F28831884201D903207AE72448006860
:1028900000F00C000028F0D12048006800F00F0084
:1028A000A84209D91D490D700846006800F00F00C4
:1028B000A84201D0012064E7207800F00400042839
:1028C00007D11748006820F4E050E1680843144934
:1028D0000860207800F00800082808D11048006837
:1028E00020F46040216940EAC1000D49086000F011
:1028F0004FF80B49096801F0F001F02292FAA2F2B8
:10290000B2FA82F2D140074A515CC84006490860D9
:102910000F20FFF799FE002033E70000003C024043
:102920000838024010CA0008000000200148006872
:10293000704700000000002000B5FFF7F7FF0749CF
:10294000096801F4E0514FF4E05292FAA2F2B2FAAF
:1029500082F2D140024A515CC84000BD08380240B2
:1029600020CA000800B5FFF7E1FF0749096801F434
:1029700060414FF4604292FAA2F2B2FA82F2D14080
:10298000024A515CC84000BD0838024020CA000815
:1029900070B50021002200230020274C246804F099
:1029A0000C0424B1042C04D0082C41D103E02348AA
:1029B00040E023483EE0204C241F246804F03F01FF
:1029C0001D4C241F246804F4800484B11C4CB4FB07
:1029D000F1F5194C241F246847F6C076344096FA66
:1029E000A6F6B6FA86F6F44005FB04F20FE0134CA7
:1029F000B4FBF1F5104C241F246847F6C076344030
:102A000096FAA6F6B6FA86F6F44005FB04F20A4CEE
:102A1000241F246804F440344FF4403595FAA5F59A
:102A2000B5FA85F5EC40641C6300B2FBF3F001E0FD
:102A3000024800BF00BF70BD083802400024F40007
:102A400040787D0170B586B006460C46154646BBFB
:102A500000BF002000902848006840F0010026498F
:102A600008600846006800F00100009000BF00BF49
:102A7000881501900220029003200490002003900A
:102A8000059001A91D48FFF7A1FC1B4828380068E4
:102A900020F0EC6044EA0501084317492839086032
:102AA00027E000BF002000901348006840F00400B9
:102AB000114908600846006800F00400009000BF5B
:102AC00000BF4815019002200290032004900020CE
:102AD0000390059001A90A48FFF778FC06482838BA
:102AE000006820F0784044EAC501084302492839CB
:102AF000086006B070BD000030380240000002409F
:102B00000008024038B504460025207800F0010096
:102B1000002874D0F748006800F00C0004280DD09D
:102B2000F448006800F00C00082813D1F148001F99
:102B3000006800F48000B0F5800F0BD1ED48083834
:102B40000068C0F34040002859D06068002856D182
:102B5000012038BD00BF6068B0F5803F08D1E5486E
:102B60000838006840F48030E249083908601EE007
:102B70006068B0F5A02F0DD1DE480838006840F439
:102B80008020DC49083908600846006840F480303D
:102B900008600CE0D7480838006820F48030D54938
:102BA000083908600846006820F48020086000BFEB
:102BB000606890B1FFF722FD054606E0FFF71EFDB5
:102BC000401B642801D90320C3E7CA4808380068BD
:102BD000C0F340400028F1D011E0FFF70FFD05469B
:102BE00006E0FFF70BFD401B642801D90320B0E786
:102BF000C04808380068C0F340400028F1D1207870
:102C000000F00200022869D1BA48006800F00C0008
:102C100058B1B848006800F00C00082821D1B54828
:102C2000001F006800F48000D8B9B2480838006876
:102C3000C0F3400020B1E068012801D0012088E7FE
:102C4000AC480838006820F0F800F82292FAA2F2A6
:102C5000B2FA82F2216991400843A6490839086016
:102C60003CE0E06828B30120A3490860FFF7C6FCF8
:102C7000054606E0FFF7C2FC401B022801D90320ED
:102C800067E79C4808380068C0F340000028F1D08E
:102C900098480838006820F0F800F82292FAA2F26A
:102CA000B2FA82F2216991400843924908390860DA
:102CB00014E0002090490860FFF7A0FC054606E0FC
:102CC000FFF79CFC401B022801D9032041E78948FB
:102CD00008380068C0F340000028F1D1207800F0E7
:102CE000080008282CD16069A8B101208349086038
:102CF000FFF784FC054606E0FFF780FC401B022836
:102D000001D9032025E77B486C300068C0F3400000
:102D10000028F1D014E0002078490860FFF76EFC2D
:102D2000054606E0FFF76AFC401B022801D9032094
:102D30000FE770486C300068C0F340000028F1D104
:102D4000207800F0040004287FD100BF002000900C
:102D500068483830006840F0805066493831086073
:102D60000846006800F08050009000BF00BF644833
:102D7000006840F4807062490860FFF73FFC054638
:102D800006E0FFF73BFC401B022801D90320E0E6E8
:102D90005B48006800F480700028F2D000BFA06893
:102DA000012808D153486830006840F001005149BB
:102DB000683108601DE0A06805280DD14D486830D5
:102DC000006840F004004B4968310860084600681C
:102DD00040F0010008600CE046486830006820F0D0
:102DE00001004449683108600846006820F004008A
:102DF000086000BFA068A0B1FFF700FC054608E02E
:102E0000FFF7FCFB401B41F28831884201D90320C7
:102E10009FE6384868300068C0F340000028EFD0D3
:102E200013E0FFF7EBFB054608E0FFF7E7FB401B6D
:102E300041F28831884201D903208AE62D48683062
:102E40000068C0F340000028EFD1A069F0B3294822
:102E5000006800F00C00082871D0A069022858D141
:102E6000002025490866FFF7C9FB054606E0FFF785
:102E7000C5FB401B022801D903206AE61D4808381B
:102E80000068C0F340600028F1D1D4E9070108438D
:102E900047F6C07292FAA2F2B2FA82F2616A9140E7
:102EA00008430122A16AC2EB51014FF4403292FA69
:102EB000A2F2B2FA82F2914008434FF0706292FAA5
:102EC000A2F2B2FA82F2E16A914000E039E00843EE
:102ED0000849091F0860012007490866FFF78EFBB3
:102EE00005460FE0FFF78AFB401B02280AD90320A2
:102EF0002FE600000838024000004742800E47429B
:102F00000070004010480068C0F340600028E9D01D
:102F100017E000200D490866FFF770FB054606E044
:102F2000FFF76CFB401B022801D9032011E606487D
:102F30000068C0F340600028F2D102E0FFE7012002
:102F400007E6002005E60000003802400000474286
:102F500010B504460CB9012010BD606A00B900BF6D
:102F6000A06AB0F5005F00D100BF94F8510028B905
:102F7000002084F85000204600F03AF8022084F83F
:102F800051002068006820F0400021680860D4E902
:102F900001010843E1680843216908436169084366
:102FA000218B01F400710843E1690843216A084359
:102FB000A16A0843216808600421A06901EA104061
:102FC000616A084321684860A06AB0F5005F02D1D9
:102FD0002168E06A08612068C06920F40060216807
:102FE000C86100206065012084F851000020B3E72B
:102FF00010B586B004461249206888421DD100BF32
:10300000002000900F48006840F480400D4908609F
:103010000846006800F48040009000BF00BF0E200A
:1030200001900220029000200390032004900520CC
:10303000059001A90448FFF7C9F906B010BD0000CA
:103040000038004040380240002002402DE9FF5F78
:1030500004460D4616461F46DDF838804FF0000A3C
:1030600000200390029081464FF0010B019000BFB9
:1030700094F85000012803D1022004B0BDE8F09F6D
:10308000012084F8500000BFFFF7B8FA814694F899
:1030900051A060680390BAF1010F0BD00398B0F50E
:1030A000827F04D1A06810B9BAF1040F02D00220C7
:1030B000019027E10DB106B117B90120019021E17E
:1030C00094F85100012802D1052084F85100002015
:1030D0006065A663E787A7872563E786A7862064E0
:1030E0006064A06AB0F5005F0ED100BF2068006880
:1030F0004DF6FF710840216808602068006840F4C0
:1031000000502168086000BF2068006800F040009F
:10311000402805D02068006840F040002168086021
:10312000E068B0F5006F4FD1606810B1E08E012803
:1031300006D128882168C860AD1CE08E401EE0865C
:103140003BE0BBF1000F1CD0E08ED0B1206880685E
:1031500000F00200022814D128882168C860AD1C44
:10316000E08E401EE0864FF0000BE08E48B9A06A6A
:10317000B0F5005F05D12068006840F480502168F8
:103180000860E08F68B12068806800F0010040B1FD
:103190002068C0683080B61CE08F401EE0874FF08A
:1031A000010B08F1010040B1FFF728FAA0EB09007C
:1031B000404502D303200190A4E0E08E0028C0D156
:1031C000E08F0028BDD14EE0606810B1E08E01288C
:1031D00006D12878216808736D1CE08E401EE086B9
:1031E0003BE0BBF1000F1CD0E08ED0B120688068BE
:1031F00000F00200022814D115F8010B21680873B1
:10320000E08E401EE0864FF0000BE08E48B9A06AC9
:10321000B0F5005F05D12068006840F48050216857
:103220000860E08F68B12068806800F0010040B15C
:103230002068C06806F8010BE08F401EE0874FF061
:10324000010B08F1010040B1FFF7D8F9A0EB09002C
:10325000404502D30320019054E0E08E0028C0D105
:10326000E08F0028BDD1A06AB0F5005F15D14346BC
:10327000012211462046CDF8009001F0C5FB30B187
:10328000606D40F002006065032001903AE0206824
:10329000C06880B20290BDF808002068806800F025
:1032A0001000102809D1606D40F0020060654FF6F3
:1032B000EF702168886001200190434601220221BD
:1032C0002046CDF8009001F09FFB10B10320019043
:1032D00018E04A464146204601F06AF820B1012034
:1032E0000190202060650DE0A06850B900BF00206B
:1032F00000902068C068009020688068009000BF3F
:1033000000BF00BF012084F8510000BF002084F8F6
:10331000500000BF0198B0E670B504462546681E0F
:10332000B0F1807F01D301200FE0681E4FF0E02153
:1033300048610F214FF0FF3002F064FA00204FF097
:10334000E021886107200861002070BD7047704748
:1033500010B504460CB9012010BD94F8390028B905
:10336000002084F83800204600F00CF8022084F891
:103370003900211D206801F045FC012084F8390046
:103380000020E9E738B5044624492068884244D043
:103390002349206888421ED100BF002000902148A8
:1033A000006840F004001F4908600846006800F00B
:1033B0000400009000BF00BF1E20FFF75BF9002251
:1033C00004211E20FFF778F91E20FFF765F920463B
:1033D00000F02CF821E01449206888421DD100BF7C
:1033E000002000900F48006840F008000D49086078
:1033F0000846006800F00800009000BF00BF3220BF
:10340000FFF738F9002204213220FFF755F9322066
:10341000FFF742F9204600F009F838BD00040040EB
:103420000008004040380240000C00400146086897
:10343000C06840F001000A68D0600868006840F089
:1034400001000A68106000207047704710B50446FC
:1034500020680069C0F34000D8B12068C068C0F39C
:103460004000B0B16FF002002168086101202076B1
:103470002068806900F0030018B12046FFF7E5FFDF
:1034800005E0204600F0ADF8204600F0ABF8002043
:10349000207620680069C0F38000D8B12068C06839
:1034A000C0F38000B0B16FF0040021680861022011
:1034B00020762068806900F4407018B12046FFF73C
:1034C000C4FF05E0204600F08CF8204600F08AF8A2
:1034D0000020207620680069C0F3C000D8B12068C1
:1034E000C068C0F3C000B0B16FF008002168086187
:1034F000042020762068C06900F0030018B120463F
:10350000FFF7A3FF05E0204600F06BF8204600F02F
:1035100069F80020207620680069C0F30010D8B157
:103520002068C068C0F30010B0B16FF010002168CF
:103530000861082020762068C06900F4407018B146
:103540002046FFF782FF05E0204600F04AF82046BB
:1035500000F048F8002020762068006900F00100A3
:1035600058B12068C06800F0010030B16FF0010070
:1035700021680861204600F037F820680069C0F330
:10358000C01058B12068C068C0F3C01030B16FF0EF
:103590008000216808612046FFF7D8FE2068006996
:1035A000C0F3801058B12068C068C0F3801030B1FB
:1035B0006FF0400021680861204600F04DF8206857
:1035C0000069C0F3401058B12068C068C0F34010D3
:1035D00030B16FF02000216808612046FFF7B7FE88
:1035E00010BD70477047000010B5044614492068AC
:1035F000884224D01349206888420DD101F0D2FBC3
:10360000FDF792FF00F0E4FC01F0A8F904F0B6FC2D
:1036100001200D49086012E00C49206888420ED153
:103620000B480068401C0A4908600846007800F012
:10363000010020B901200749086000F0FBFC10BD23
:103640000004004000080040180F0020000C00405B
:103650001C0F0020200F0020704770472DE9F04715
:103660000446206805682068C668206847694FF0EE
:103670000008C14605F00F08B8F1000F0AD105F0A7
:10368000200038B106F0200020B1204601F048FCAF
:10369000BDE8F087B8F1000F6DD007F0010018B950
:1036A00006F49070002866D005F0010030B106F4F1
:1036B000807018B1E06B40F00100E06305F0040099
:1036C00030B107F0010018B1E06B40F00200E06398
:1036D00005F0020030B107F0010018B1E06B40F0D6
:1036E0000400E06305F0080030B107F0010018B1F4
:1036F000E06B40F00800E063E06B68B305F0200089
:1037000028B106F0200010B1204601F009FC206825
:103710004069C0F38019E06B00F0080010B9B9F1FE
:10372000000F22D0204601F0DBFB2068406900F04A
:103730004000B0B12068406920F040002168486135
:10374000606B50B11748616B0865606BFEF711F84C
:1037500010B1606B016D88470CE02046FFF77DFFDC
:1037600008E02046FFF779FF04E02046FFF775FFE9
:103770000020E0638CE705F0800030B106F08000A7
:1037800018B1204601F0CEFD82E705F0400030B1CF
:1037900006F0400018B1204601F0B2FB78E700BF08
:1037A00076E70000CD4E000810B504460CB90120A4
:1037B00010BDA06900B100E000BF94F8390028B93D
:1037C000002084F83800204600F028F8242084F8EF
:1037D00039002068C06820F400502168C860204685
:1037E00001F0ECFB2068006920F49040216808613A
:1037F0002068406920F02A00216848612068C0687C
:1038000040F400502168C8600020E063202084F864
:10381000390084F83A000020CAE7000010B586B0ED
:1038200004465D492068884239D100BF00200090DD
:103830005A48006840F0010058490860084600688E
:1038400000F00100009000BF00BF00BF002000900A
:1038500052481430006840F010005049143108609C
:103860000846006800F01000009000BF00BF4FF451
:10387000C060019002200290012003900320049078
:103880000720059001A94648FEF7A0FD01220E2160
:103890002520FEF711FF2520FEF7FEFE7AE04149C4
:1038A0002068884239D100BF002000903B48006862
:1038B00040F00800394908600846006800F0080038
:1038C000009000BF00BF00BF0020009033481030C0
:1038D000006840F4802031491031086008460068D3
:1038E00000F48020009000BF00BF4FF440700190B2
:1038F00002200290012003900320049007200590ED
:1039000001A92948FEF762FD01220F212720FEF7B9
:10391000D3FE2720FEF7C0FE3CE024492068884201
:1039200038D100BF002000901C48006840F004001F
:103930001A4908600846006800F00400009000BFC3
:1039400000BF00BF0020009014481030006840F411
:1039500000201249103108600846006800F4002079
:10396000009000BF00BF4FF4406001900220029021
:1039700001200390032004900820059001A90C4821
:10398000FEF724FD01220F213420FEF795FE34209E
:10399000FEF782FE06B010BD001001403038024034
:1039A0000000024000480040000C0240004C004073
:1039B0000008024010B5034693F83A00202829D1A8
:1039C00001B10AB9012010BD00BF93F838000128E9
:1039D00001D10220F7E7012083F8380000BF996287
:1039E0009A85DA850020D863222083F83A0000BF48
:1039F000002083F8380000BF1868406940F00100DB
:103A00001C6860611868C06840F490701C68E060D1
:103A10000020D8E70220D6E710B504460A492068FE
:103A2000884206D109480122C1690948FFF7C2FF4F
:103A300009E008492068884205D107480122C16988
:103A40000648FFF7B7FF10BD001001409C49002059
:103A5000DC48002000480040C44900201C490020E8
:103A600010B5034693F83900202823D101B10AB9D3
:103A7000012010BD00BF93F83800012801D10220B9
:103A8000F7E7012083F8380000BF19629A84DA84CE
:103A90000020D863212083F8390000BF002083F87C
:103AA000380000BF1868C06840F080001C68E06003
:103AB0000020DEE70220DCE77047000010B5044676
:103AC000034800F055F808B101F024FE10BD0000D5
:103AD000C848002010B5044620684068C0F3402064
:103AE00058B12068806800F0010030B16FF001002B
:103AF000216888602046FFF7E1FF10BD10B504463D
:103B00000CB9012010BD204600F00EF8E06840F02E
:103B1000800021680860616820690843A168084343
:103B2000216848600020EDE738B504460E4920685A
:103B3000884217D100BF002000900C48006840F474
:103B400000600A4908600846006800F400600090C0
:103B500000BF00BF002211461046FEF7ADFD002059
:103B6000FEF79AFD38BD0000002C004040380240AE
:103B700001460A68C86810600020704700BFFEE771
:103B80002DE9F84F054600BF4FF00009CA46CB4665
:103B9000002000902D482E490860DFF8B88005EB22
:103BA00085008701284600F05DF900264AE00024E0
:103BB00021E005F1080000EBC0002549096801EB90
:103BC000C00006EB460100EB4100005D08F807006D
:103BD00005F1180000EBC0001D49096801EBC000A9
:103BE00006EB460100EB4100015D07F5206008F897
:103BF00000107F1C641C202CDBDB00241FE005EB85
:103C0000C5001349096801EBC00006EB460100EB53
:103C10004100005D08F8070005F1100000EBC0004E
:103C20000B49096801EBC00006EB460100EB4100BF
:103C3000015D07F5206008F800107F1C641C202C33
:103C4000DDDB761C052EB2DBBDE8F88F0018012005
:103C5000DC0C0020000001202DE9F04100BF00BF76
:103C6000224E234FDFF88C804FF4C0513046FCF7D2
:103C7000C0FA4FF4C0513846FCF7BBFA4FF410516C
:103C80004046FCF7B6FA00201B4908601B49086053
:103C90001B480068401C1A4908600846007800F07C
:103CA000010000EB8000450000241BE0691CC1EB13
:103CB0000111144A02EB4101095D2039124A02EB5D
:103CC000011000F011F911498978C1EB01110D4A79
:103CD00002EB4101095D20390B4A02EB011000F0B3
:103CE00093F8641C142CE1DBBDE8F081001801207E
:103CF0000000012000300120380D00203C0D002084
:103D0000100F0020440D002094060020E30C00203A
:103D100000B587B000BF002001903648006840F031
:103D20000100344908600846006800F00100019075
:103D300000BF00BF012003900490402002900320A8
:103D4000059002A92C48FEF741FB00BF002001901E
:103D50002848006840F002002649086008460068CC
:103D600000F00200019000BF00BF0120039004900A
:103D7000212002900320059002A92048FEF726FB8F
:103D800000BF002001901B48006840F00400194962
:103D900008600846006800F00400019000BF00BF02
:103DA0000120039004904FF4E070029003200590EE
:103DB00002A91348FEF70AFB00BF002001900D483E
:103DC000006840F020000B4908600846006800F0D9
:103DD0002000019000BF00BF0120039004904FF429
:103DE0007C7002900320059002A90648FEF7EEFAC7
:103DF00007B000BD3038024000000240000402401D
:103E00000008024000140240F0B5024600250023DD
:103E1000124C002019E0124E36684FF4A07707FBD1
:103E2000006606F1A00307210CE0165C0E4106F0C7
:103E3000010686F0010686F0010C1E465B1C04F8A4
:103E400006C0491E0029F0DA401C1028E3DB044EAE
:103E500036680836024F3E60F0BD00000030012099
:103E60003C0D002030B501461A4A1B4B1B4C246800
:103E7000641C1A4D2C601A4CE4781CB9A024194D0E
:103E80002C6002E0A024174D2C6000201EE001EB06
:103E9000810400EB8414134D2D682C44145D01EB58
:103EA000810500EB45155C5501F1080404EB840421
:103EB00000EB84140B4D2D682C44155D01F10804B2
:103EC00004EB840400EB44141D55401CA028DEDBE9
:103ED00030BD000000300120002401200C0F002024
:103EE000E30C0020080F0020F0B502460025002357
:103EF000104C002016E0104E3668A02707FB006328
:103F000007210CE0165C0E4106F0010686F0010662
:103F100086F0010C1E465B1C04F806C0491E0029F1
:103F2000F0DA401C1028E6DB034E36680836024FF4
:103F30003E60F0BD00180120380D00202DE9F04151
:103F4000002400251B4E1C4F4FF4C0513046FCF797
:103F500050F94FF4C0513846FCF74BF9002017498F
:103F600008601749086017480068062190FBF1F2C5
:103F700001FB120500BF14E0B4EB850F0ADB681CDF
:103F8000B4EB800F06DA1048FFF7AEFF0E48FFF7DC
:103F90003BFF05E00D48FFF7A7FF0C48FFF734FF94
:103FA000641C142CE8DB07480068401C05490860C5
:103FB000BDE8F0810018012000000120380D00202C
:103FC0003C0D00201C0D0020940C002094060020C5
:103FD00013480068401C1249086012480068401CE1
:103FE0001049086010480068401C0F4908600D48DF
:103FF00000684FF4FA6190FBF1F201FB120010B976
:1040000001200A490860084800684FF47A7190FB63
:10401000F1F201FB120010B9012005490860704758
:10402000300D0020280D0020200D0020240D002040
:10403000180D00202DE9FC5F00BF44F244494FF009
:10404000000A4FF0000B00BF00BF00BF002000902F
:10405000684D69480068401C674908600846007858
:1040600000F0070708460078401E00F007000190A6
:1040700008460078C01D00F0070606F00102102176
:104080005E48FEF7AFFAC6F3400220215B48FEF718
:10409000A9FAB20840215948FEF7A4FA01225102B8
:1040A0005648FEF79FFA012211025448FEF79AFA89
:1040B000002269155148FEF795FA002229154F484C
:1040C000FEF790FA3846FFF75BFD07EB87008401A7
:1040D0004FF0000882E0002280214848FEF782FA73
:1040E0004748C078002840D1285D00F001024021F7
:1040F0004448FEF777FA285D00F00102202142488B
:10410000FEF770FA285D00F0010008B1002000E021
:104110000020024601213C48FEF764FA04F52060C5
:10412000285C00F0010008B1002000E000200246F9
:1041300040213648FEF756FA04F52060285C00F06E
:10414000010280213148FEF74DFA04F52060285C19
:1041500000F0010008B1002000E0002002464FF40A
:1041600080712A48FEF73EFA30E0285D00F0010237
:1041700040212448FEF736FA285D00F00102202194
:104180002148FEF72FFA285D00F0010201211E48A8
:10419000FEF728FA04F52060285C00F001024021B7
:1041A0001A48FEF71FFA04F52060285C00F00102AF
:1041B00080211648FEF716FA04F52060285C00F00E
:1041C00001024FF480711148FEF70CFA01228021A0
:1041D0000A48FEF707FA641C08F10108B8F5A07F49
:1041E000FFF679AF012251020448FEF7FBF9BDE862
:1041F000FC9F000000000120D80C002000140240A9
:10420000E30C0020000002400004024000080240CD
:1042100000BFFEE70FB4F0B5ADF5057D06460F46CD
:104220008DA801901E48019A8C9901F0D1FA1C4882
:10423000FBF7EAFF05462A46194905A8FBF7C0FF28
:10424000002410E0325D17A102A801F0ADFA04EBE2
:104250004400284405A90844BDF8081001809DF8D1
:104260000A108170641CBC42ECDB10A102A801F0B2
:104270009BFA04EB4400284405A908440299016014
:1042800004EB44002844801C81B2042205A8FCF7FA
:104290009BFC002001900DF5057DF0BC5DF814FB42
:1042A000666F0020253032582D0000000A0D0000F6
:1042B0000FB438B504201349086005A800901248CF
:1042C000009A049901F084FA0E48007800F0010089
:1042D00048B10D48FBF798FF84B2012221460A48F5
:1042E000FCF772FC08E00848FBF78EFF84B204225A
:1042F00021460548FCF768FC0020009038BC5DF8BA
:1043000014FB000090120020667700207047000028
:1043100000B587B01E4800781E49097840EA0110B0
:1043200000061D4909781D4A127841EA0211C9B2F6
:1043300040EA014040F4745040F00A0006904FF605
:10434000FF70059043F60A50049015481549002265
:1043500004ABCDE90021029005AA06A9124804F099
:10436000C3FC114804F034FD0F4890F82F00C0F34F
:10437000800018B10C4804F0AEFD02E00A4804F0D9
:104380002DFD0A49084804F06BFD07B000BD000090
:1043900048000020490000204A0000204B00002077
:1043A000BD6B0008DD6C000854140020CD6E0008C1
:1043B000F8B504460D4616462B46002280212046BD
:1043C000009600F021FB28B1606D40F02000606590
:1043D0000320F8BD0020FCE7F0B5B3B005460C465D
:1043E000164600F0F3FA002201212B48FEF7FAF8F6
:1043F0000B208DF868000120034601AA1AA900903D
:104400002648FEF723FE200C8DF8680001200346A5
:1044100001AA1AA900902148FEF718FE200A8DF87B
:1044200068000120034601AA1AA900901B48FEF764
:104430000DFEE0B28DF868000120034601AA1AA91A
:1044400000901648FEF702FEFF208DF8680001205C
:10445000034601AA1AA900901048FEF7F7FD0027AD
:1044600010E0FF208DF868000120034601AA1AA978
:1044700000900A48FEF7EAFD9DF8040028706D1CC4
:10448000781CC7B2B742ECDB012211460248FEF7A6
:10449000A9F833B0F0BD0000002002400C48002015
:1044A0002DE9F05F07460E4614464FF00008C1465E
:1044B000C2460025AB4606F0FF0ACAF10000C5B2AD
:1044C0002046E11704EB1161C1F30728E11704EB63
:1044D00011610912A4EB012101F0FF09BAF1000FEB
:1044E00020D1B8F1000F05D122463146384600F000
:1044F0004DF964E009E04FF480723146384600F02F
:1045000045F906F5807607F58077B8F10000A8F147
:10451000010101F0FF08EED14A463146384600F06D
:1045200035F94CE0B8F1000F18D1A94510DDA9EB21
:10453000050000F0FF0B2A463146384600F026F908
:104540002E442F445A463146384600F01FF936E0D3
:1045500022463146384600F019F930E0601B84B23B
:104560002046E11704EB1161C1F30728E11704EBC2
:1045700011610912A4EB012101F0FF092A4631461D
:10458000384600F003F92E442F4409E04FF48072BE
:104590003146384600F0FAF806F5807607F5807760
:1045A000B8F10000A8F1010101F0FF08EED1B9F166
:1045B000000F04D04A463146384600F0E7F8BDE81F
:1045C000F09F000000B5B3B0002201210A48FEF7B9
:1045D00009F898208DF868000120034601AA1AA95D
:1045E00000900648FEF732FD012211460248FDF711
:1045F000F9FF33B000BD0000002002400C4800204D
:1046000000B587B000BF002001902348006840F447
:104610008070214908600846006800F480700190AD
:1046200000BF00BF312002900120039004900320BE
:10463000059002A91948FDF7C9FE01221146174845
:10464000FDF7D0FF012220211448FDF7CBFF012206
:1046500010211248FDF7C6FF1148124908604FF4B7
:104660008270486000210F488160C1600161416132
:104670004FF4007181610021C16101624162816278
:104680000A21C162FEF764FC08B1FCF7FBFCFFF7EE
:1046900099FF07B000BD0000303802400020024002
:1046A000003800400C48002010B500242148006864
:1046B00041F2883188423BD11E480068401C1D49A8
:1046C00008601D4800684621B0FBF1F201FB1200B2
:1046D0001949086008460088040400F0ADF817493D
:1046E00008600846006880B242F2426188421FD1E9
:1046F000204600F0EFF8142221461148FFF7D0FEC3
:10470000142221460F48FFF767FE14220D490C487A
:10471000FCF714FA0C49088006480A4A2146036847
:104720000AA0FFF7C5FD04480068401C0249086064
:1047300010BD0000281000202C10002024100020A4
:10474000BC0F002064480020301000202D2D2D5378
:1047500050492041444452455353203A2025582083
:10476000202D2D2D535049205265616420446174E1
:1047700061203A20257320202D2D2D53504920549F
:10478000696D65203A2025640A0D0000F0B5B3B0CC
:1047900005460C461646002700F018F900220121B4
:1047A0002348FDF71FFF02208DF868000120034613
:1047B00001AA1AA900901F48FEF748FC200C8DF8AA
:1047C00068000120034601AA1AA900901948FEF7C3
:1047D0003DFC200A8DF868000120034601AA1AA9B1
:1047E00000901448FEF732FCE0B28DF8680001201A
:1047F000034601AA1AA900900E48FEF727FC09E01B
:104800000120E919034601AA00900A48FEF71EFCA0
:10481000781CC7B2301EA6F101018EB2F0D1012280
:1048200011460348FDF7DEFE00F0A0F833B0F0BDFE
:10483000002002400C480020F0B5B3B00024002551
:1048400000260027002201212048FDF7CBFE9F20F3
:104850008DF868000120034601AA1AA900901C489F
:10486000FEF7F4FBFF208DF868000120034601AA43
:104870001AA900901648FEF7E9FB9DF80450FF20A6
:104880008DF868000120034601AA1AA9009010487B
:10489000FEF7DCFB9DF80460FF208DF86800012026
:1048A000034601AA1AA900900948FEF7CFFB9DF81C
:1048B0000470012211460548FDF794FE280440EAE1
:1048C000062040EA0704204633B0F0BD0020024035
:1048D0000C48002010B5B4B0044600F077F8002270
:1048E00001211C48FDF77EFE20208DF86C00012080
:1048F000034602AA1BA900901748FEF7A7FB200C4D
:104900008DF86C000120034602AA1BA900901248F2
:10491000FEF79CFB200A8DF86C000120034602AADA
:104920001BA900900C48FEF791FBE0B28DF86C00DB
:104930000120034602AA1BA900900748FEF786FB48
:10494000012211460348FDF74DFE00F00FF834B088
:1049500010BD0000002002400C4800200248006802
:10496000401C0149086070472810002010B5B4B001
:104970000024002201211348FDF734FE05208DF8A4
:104980006C000120034602AA1BA900900E48FEF706
:104990005DFB00BFFF208DF86D000120034602AAD9
:1049A0001BA900900848FEF751FB9DF8084004F051
:1049B00080008028EED0012211460248FDF712FE49
:1049C00034B010BD002002400C48002000B5B3B048
:1049D000002201210A48FDF705FE06208DF8680037
:1049E0000120034601AA1AA900900648FEF72EFBF3
:1049F000012211460248FDF7F5FD33B000BD00006D
:104A0000002002400C4800202DE9F04104460E46EB
:104A100017461D46DDF818803FE0681CE0B32DB155
:104A2000FDF7ECFDA0EB0800A84236D320684068F3
:104A300020F0E000216848606068B0F5827F0DD109
:104A4000A068B0F5004F03D0A068B0F5806F05D125
:104A50002068006820F0400021680860A06AB0F576
:104A6000005F0ED100BF206800684DF6FF7108405E
:104A7000216808602068006840F4005021680860E0
:104A800000BF012084F8510000BF002084F85000CE
:104A900000BF0320BDE8F081FFE720688068304058
:104AA000B04201D1012000E00020B842B5D1002081
:104AB000F0E710B5FDF7A8FD10BD000000B593B0FC
:104AC00000BF002001902748006840F08050254931
:104AD00008600846006800F08050019000BF00BFE9
:104AE00000BF002001902048006840F480401E492B
:104AF00008600846006800F48040019000BF00BFD5
:104B000001200290000403900220089041050991C1
:104B100019210A914FF4A8710B9102210C910721E0
:104B20000D9102A8FDF7EEFF0F200E9002200F90CE
:104B3000002010904FF4A05011904FF4805012902C
:104B400005210EA8FDF70AFEFDF752FD41F2010115
:104B5000884205D10548006840F480700349086028
:104B600013B000BD4038024000700040003C0240DD
:104B70001448006840F47000124908601248006848
:104B800040F001001049086000200F49083108601A
:104B90000D4800680D4908400B4908600C48091D84
:104BA0000860081F006820F48020091F08600020AA
:104BB00005490C3108604FF00060024980390860F7
:104BC0007047000088ED00E000380240FFFFF6FE6D
:104BD0001030002410B50248FEF738FC10BD00006C
:104BE0006046002010B50248FEF730FC10BD000002
:104BF0009C46002010B50248FEF728FC10BD0000BE
:104C0000D8460020002202682C4B98420ED0B0F10A
:104C1000804F0BD02A4B984208D02A4B984205D09F
:104C2000294B984202D0294B984201D1012300E040
:104C300000231BB122F070024B681A431F4B9842AD
:104C400020D0B0F1804F1DD01D4B98421AD01D4B83
:104C5000984217D01C4B984214D01C4B984211D04C
:104C60001B4B98420ED01B4B98420BD01A4B9842CC
:104C700008D01A4B984205D0194B984202D0194BD4
:104C8000984201D1012300E000231BB122F44072BD
:104C9000CB681A4302608B68C3620B688362074B60
:104CA000984202D0094B984201D1012300E0002331
:104CB0000BB10B690363012343617047000001409E
:104CC0000004004000080040000C004000040140C7
:104CD00000400140004401400048014000180040ED
:104CE000001C00400020004000B587B000BF00203D
:104CF00001902848006840F01000264908600846E6
:104D0000006800F01000019000BF00BF0120039078
:104D1000049047F6030002900320059002A91E4864
:104D2000FDF754FB00BF002001901A48006840F0D6
:104D30004000184908600846006800F040000190F3
:104D400000BF00BF0120039004904FF4F460029074
:104D50000320059002A91148FDF738FB00BF002091
:104D600001900C48006840F480700A4908600846C9
:104D7000006800F48070019000BF00BF0120039024
:104D800004908020029002A90548FDF71FFB07B0A0
:104D900000BD000030380240001002400018024000
:104DA0000020024010B513480068401C11490860FB
:104DB000084600686421B0FBF1F201FB120020B943
:104DC0004FF400610C48FDF709FC0A48006842F204
:104DD0001071B0FBF1F201FB120048B90548006800
:104DE0004FF47A71B0FBF1F4214604A0FFF760FAAA
:104DF00010BD000044000020002002404350552018
:104E000050726F63657373696E672054696D657264
:104E100020203D202564205365636F6E6420200AA6
:104E20000D00000010B51D48006840081C49B0FB8B
:104E3000F1F0401E1B4908601B481C49086042F203
:104E40000F711A48C160174800681849486000216E
:104E5000164801618160FEF77BFA1448FEF7E6FA16
:104E60000E48006840080E49B0FBF1F0401E1049A2
:104E7000086010481049086042F20F710E48C16086
:104E80000B4800680C49486000210B4801618160B3
:104E9000FEF75EFA0848FEF7C9FA10BD00000020D0
:104EA000809698002C0F0020000800409C460020AF
:104EB000300F0020000C0040D846002010B50248FA
:104EC000FEF7CCFB10BD00005C49002070B5054624
:104ED000AC6B0020E085E0842046FEF7BEFB70BD91
:104EE0000168C96821F490710268D160016849695C
:104EF00021F0010102685161202180F83A107047C9
:104F000010B504462068C06820F040002168C860E1
:104F1000202084F839002046FEF7CEFD002010BD89
:104F200070B5044694F83A00222844D1A068B0F540
:104F3000805F13D1A56A206940B920684068C0F33A
:104F400008002880A06A801CA06219E020684068E0
:104F5000C0B22880A06A401CA06211E0206938B964
:104F600020684068C1B2A26A501CA062117007E0BC
:104F70002068406800F07F01A26A501CA062117096
:104F8000E08D401E80B2E08598B92068C06820F4AA
:104F900090702168C8602068406920F00100216895
:104FA0004861202084F83A002046FEF735FD0020B5
:104FB00070BD0020FCE70220FAE700002DE9F04177
:104FC000044600252068056925F44055E06805433E
:104FD000206805612068C56849F20C608543216935
:104FE000A068084361690843E169084305432068F4
:104FF000C5602068456925F44075A06905432068AF
:105000004561E069B0F5004F7ED1C449206888420F
:1050100003D0C349206888425DD1FDF7A3FC00EBB3
:10502000C00101EB001061684900B0FBF1F06421A0
:10503000B0FBF1F00601FDF795FC00EBC00101EBC0
:10504000001061684900B0FBF1F7FDF78BFC00EB45
:10505000C00101EB001061684900B0FBF1F0642170
:10506000B0FBF1F000EBC00101EB0010A7EB8000FA
:10507000322101EBC0006421B0FBF1F000F0F80038
:1050800006EB4006FDF76EFC00EBC00101EB0010E3
:1050900061684900B0FBF1F7FDF764FC00EBC0016B
:1050A00001EB001061684900B0FBF1F06421B0FB36
:1050B000F1F000EBC00101EB0010A7EB8000322102
:1050C00001EBC0006421B0FBF1F000F007003044B8
:1050D0002168886020E1FDF72FFC00EBC00101EBA7
:1050E000001061684900B0FBF1F06421B0FBF1F001
:1050F0000601FDF721FC00EBC00101EB0010616827
:105100004900B0FBF1F700E045E0FDF715FC00EBCE
:10511000C00101EB001061684900B0FBF1F06421AF
:10512000B0FBF1F000EBC00101EB0010A7EB800039
:10513000322101EBC0006421B0FBF1F000F0F80077
:1051400006EB4006FDF7F8FB00EBC00101EB001099
:1051500061684900B0FBF1F7FDF7EEFB00EBC00121
:1051600001EB001061684900B0FBF1F06421B0FB75
:10517000F1F000EBC00101EB0010A7EB8000322141
:1051800001EBC0006421B0FBF1F000F007003044F7
:1051900021688860C0E061492068884203D0604986
:1051A000206888425CD1FDF7DDFB00EBC00101EB1C
:1051B000001061688900B0FBF1F6FDF7D3FB00EB4E
:1051C000C00101EB001061688900B0FBF1F06421BF
:1051D000B0FBF1F000EBC00101EB0010A6EB80008A
:1051E000322101EB00106421B0FBF1F000F0F00679
:1051F000FDF7B8FB00EBC00101EB0010616889000E
:10520000B0FBF1F06421B0FBF1F006EB0016FDF706
:10521000A9FB00EBC00101EB001061688900B0FB45
:10522000F1F7FDF79FFB00EBC00101EB0010616897
:105230008900B0FBF1F06421B0FBF1F000EBC0019C
:1052400001EB0010A7EB8000322101EB001064217C
:10525000B0FBF1F000F00F003044216888605BE0A3
:10526000FDF76AFB00EBC00101EB001061688900EB
:10527000B0FBF1F6FDF760FB00EBC00101EB0010A5
:1052800061688900B0FBF1F06421B0FBF1F000EB44
:10529000C00101EB0010A6EB8000322101EB0010F1
:1052A0006421B0FBF1F000F0F006FDF745FB00EBE8
:1052B000C00101EB001061688900B0FBF1F06421CE
:1052C000B0FBF1F006EB0016FDF736FB00EBC0017A
:1052D00001EB001061688900B0FBF1F7FDF72CFBD2
:1052E00000EBC00101EB001061688900B0FBF1F038
:1052F0006421B0FBF1F000EBC00101EB0010A7EB63
:105300008000322101EB00106421B0FBF1F000F0CD
:105310000F00304421688860BDE8F0810010014032
:1053200000140140014691F8390021282CD18868E9
:10533000B0F5805F0FD10A6A1088C0F308000B68CF
:105340005860086918B9086A801C086209E0086A90
:10535000401C086205E00B6A581C086218780B684C
:105360005860C88C401E80B2C88458B90868C068AC
:1053700020F080000B68D8600868C06840F04000EA
:105380000B68D860002070470220FCE710B5024887
:10539000FEF764F910BD0000DC48002010B502489B
:1053A000FEF75CF910BD00001C49002010B5002478
:1053B00000F002F810BD000010B52548807824499F
:1053C0000978884239D022484088401C0A2190FB45
:1053D000F1F201FB1200C0EB80111D48001D10F816
:1053E0003140012C10D11B4890F8390020282ED1D3
:1053F00019498868891CFBF7B5FB17484288816802
:105400001448FEF72DFB22E0E0B204281FD1134818
:1054100090F8390020281AD10122C1011048FDF767
:10542000E1F810498868891CFBF79CFB0D4842880D
:1054300081680A48FEF714FB09E0084890F8390033
:10544000202804D10022C1010548FDF7CBF810BD8A
:10545000144A0020DC4800209C4900205C490020C0
:1054600000080240EC49002010B564486449086017
:105470004FF496404860002161488160C16001613D
:1054800081610C2141610021C161FEF78DF901228A
:105490005C495B48FEF78EFA5B485C4908604FF454
:1054A00016504860002159488160C16001618161E6
:1054B0000C2141610021C161FEF776F901225449B6
:1054C0005248FEF777FA5348534908604FF4E130E9
:1054D0004860002150488160C160016181610C21F8
:1054E00041610021C161FEF75FF901224B494A4841
:1054F000FEF760FA00204A498873C8732820C882E2
:1055000000204882052088840A20488000200880E6
:105510000120087100204871C8208881002008758A
:10552000384888613F48C8613F4888603F48086202
:1055300088694FF4FA71FAF75CFE394988684FF4CC
:10554000FA71FAF756FE3649086A4FF4FA71FAF71B
:1055500050FE002036498873C8731420C88200208A
:1055600048820A204880002008800120087100201D
:1055700048710875264888612E48C8612E488860A1
:105580002E48086288694FF4FA71FAF732FE28490A
:1055900088684FF4FA71FAF72CFE2549086A4FF42F
:1055A000FA71FAF726FE002025498873C8730A208D
:1055B000C882002048820A204880002008800120FC
:1055C0000871002048710875144888611D48C86139
:1055D0001D4888601D48086288694FF4FA71FAF71F
:1055E00008FE174988684FF4FA71FAF702FE144969
:1055F000086A4FF4FA71FAF7FCFD10BD0010014083
:10560000DC480020C85D0020004800401C49002004
:10561000A4630020004C00405C4900208069002009
:105620009C49002039120020BC5F0020B06100209E
:10563000C44900203E120020986500208C6700209D
:10564000EC49002043120020746B0020686D00209C
:1056500000BFFEE730B585B0044694F82F0000F097
:105660000100B0B1201D02F035FA05462A460EA110
:10567000684600F099F869460CA0FEF719FE201D57
:1056800002F028FA05462A460FA1114800F08CF8CE
:1056900007E010A0FEF70CFE18A10D48283000F01E
:1056A00083F805B030BD00002573000053746174A9
:1056B000696320495020616464726573733A2025E0
:1056C00073200A0D000000004950203A2025730085
:1056D000667F0020546865206E6574776F726B205A
:1056E0006361626C65206973206E6F7420636F6EF6
:1056F0006E656374656420200A0D00006E6F74206F
:10570000636F6E6E65637465642020202020202006
:105710000000000000BFFEE710B50248FEF7DAF90E
:1057200010BD0000C848002010B512480068C0F342
:10573000807040B110A0FEF7BBFD0E48006840F03D
:1057400080700C4908601148114908604FF4C0701E
:10575000486050210E4881607F21C1604FF4007184
:105760000161FEF7CBF920B10AA0FEF7A1FDFFF71A
:10577000D1FF10BD743802402A2A5757444720529F
:10578000455345542A2A200A0D000000002C0040F1
:10579000C84800202A2A57574447204572726F7222
:1057A0002A2A200A0D0000000FB4084B10B504A9E6
:1057B00002AA039800F00CF9044602A9002000F0A8
:1057C0009EFC204610BC5DF814FB0000FF60000842
:1057D00037B514460846064B6A46214600F0F8F8ED
:1057E00004466946002000F08AFC20463EBD0000C9
:1057F000FF60000802480068C0F302207047000004
:105800000CED00E010B5002804DB0A07130E054A72
:10581000135406E00A07140E034A00F00F031B1F7F
:10582000D45410BD00E400E018ED00E002E008C828
:10583000121F08C1002AFAD170477047002001E00A
:1058400001C1121F002AFBD1704700002DE9FF5F44
:1058500082B00021DDE90430020DDDF840B00343E1
:1058600018D044F61050A2F2FF324243151411989A
:1058700001281FD0A5EB0B00401C5FEA000A4FF087
:1058800000064E4FDFF83891B046504615D5CAF1A4
:10589000000413E0119801244AA3012801D16FEA02
:1058A0000B010298119AC0E90031C0E9024206B02A
:1058B000BDE8F09FCBF10000DFE704460021404A3D
:1058C000491842EB0450CDE9001012E0E00707D080
:1058D00032463B4640464946FAF798FD804689469F
:1058E00032463B4610461946FAF790FD06460F46EB
:1058F0006410002CEAD1DDE90401DDE90023BAF1EE
:10590000000F06DAFAF782FD42464B46FAF77EFDB3
:1059100005E0FAF7EDFD42464B46FAF7E9FD04468D
:105920000E460022284BFAF76BFE03D84FF0FF30EB
:10593000014607E00022254B20463146FAF7BFFC1E
:10594000FAF745FE102409E0002C0ADB0A220023A6
:10595000FAF784FC039B30321A55641E50EA0102A8
:10596000F2D1641C039AC4F111031444119A012A60
:1059700003D0012208430DD10AE0084304D00020DF
:105980004FF0110B119072E7A3EB0B056D1E0DE0AC
:105990005B4504DD4FF0000205F1010504E003DA88
:1059A0004FF00002A5F10105002AECD002981199F0
:1059B000C0E90231C0E9004579E700000000144069
:1059C0000000F03F300000000000F0430000E03F26
:1059D0002DE9FF4F95B09B468946064600250FE20C
:1059E000252877D100242746F84A0121059400E0B4
:1059F000044316F8013F203B01FA03F01042F7D1AF
:105A000030782A2811D06FF02F033078A0F13002BF
:105A1000092A16D8059A44F0020402EB820203EB2D
:105A200042021044761C0590EFE759F8042B0592CA
:105A3000002A03DA504244F40054059044F0020472
:105A4000761C30782E2816D116F8010F44F0040485
:105A50002A280DD06FF02F023078A0F13003092BE7
:105A600009D807EB870302EB4303C718761CF3E75B
:105A700059F8047B761C30786C280FD006DC4C2853
:105A800017D068280DD06A2814D104E0742810D0EB
:105A90007A280FD10DE044F400140AE044F4801495
:105AA00001E044F440147278824202D104F580147B
:105AB000761C761C307866280BD013DC582877D0FB
:105AC00009DC002875D04528F6D04628F4D04728B0
:105AD0001AD19DE118E0632835D0642879D0652873
